:020000040000FA
:1000000008020010E1000000E9000000EB00000021
:10001000ED000000EF000000F10000000000000013
:10002000000000000000000000000000F3000000DD
:10003000F500000000000000F7000000F9000000DB
:10004000FB000000FB000000FB000000FB000000C4
:10005000FB000000FB000000FB000000FB000000B4
:10006000FB000000FB000000FB000000FB000000A4
:10007000FB000000FB000000FB000000FB00000094
:10008000FB000000FB000000FB000000FB00000084
:10009000FB000000FB000000FB000000FB00000074
:1000A000FB000000FB000000FB000000FB00000064
:1000B000FB000000FB000000FB000000FB00000054
:1000C000FB000000FB000000FB000000DFF80CD08C
:1000D00000F07EF8004800478D0B00000802001079
:1000E0000648804706480047FEE7FEE7FEE7FEE7D2
:1000F000FEE7FEE7FEE7FEE7FEE7FEE7AD060000EF
:10010000CD0000002DE9F05F0546002092469B4699
:1001100088460646814640241BE02846414647461D
:10012000224600F045F853465A46C01A914110D372
:1001300011461846224600F02CF82D1A67EB0108EC
:100140004F4622460120002100F023F817EB00095A
:100150004E41201EA4F10104DFDC484631462A4608
:100160004346BDE8F09F30B50B46014600202022F3
:10017000012409E021FA02F59D4205D303FA02F5B4
:10018000491B04FA02F52844151EA2F10102F1DC14
:1001900030BD202A04DB203A00FA02F1002070472B
:1001A0009140C2F1200320FA03F3194390407047B5
:1001B000202A04DB203A21FA02F00021704721FABC
:1001C00002F3D040C2F12002914008431946704723
:1001D000064C074D06E0E06840F0010394E8070094
:1001E00098471034AC42F6D3FFF774FF980D000027
:1001F000B80D00000A48006840F080000849C43982
:10020000C1F8C4000748406840F0A0700549486044
:100210003C200549086148614020086070470000A3
:10022000C4C00F4000C0024000C001400420074984
:1002300008600820886100BF0448006800F00800DA
:100240000028F9D001488068C0B2704700C0014062
:100250000420074988610820886100BF04480068BD
:1002600000F008000028F9D001488068C0B270474B
:1002700000C0014020200649086000BF0448006813
:1002800000F008000028F9D020200149886170475B
:1002900000C00140102002490860082088617047B2
:1002A00000C00140064988600821054A916100BFED
:1002B0000349096801F008010029F9D070470000DE
:1002C00000C0014030B505460C46012000F018F88A
:1002D000802000F015F8284600F082F82CB1C020EC
:1002E00000F00EF8204600F07BF830BD02E008C8B0
:1002F000121F08C1002AFAD170477047FFFFFFFFA5
:1003000010B504464FF0C0600549C867201100F0E1
:1003100077F8204600F074F8022000F029FC10BDA8
:1003200000C0092010B504464FF0007005498867E9
:100330004000C867201100F063F8204600F060F824
:1003400010BD000000C0092000B54FF080500649E4
:100350000860012000F00CFC4FF0805002499839F1
:10036000C1F89C0000BD000098C0092000B51B48E2
:10037000006A40F47000194908620846006E40F0B7
:10038000C060086615488030006840F08050C1F8B1
:100390008000282000F0ECFB032000F031F805205D
:1003A00000F0E6FB032000F02BF8052000F0E0FB56
:1003B000032000F025F8052000F0DAFB022000F011
:1003C0001FF82820FFF79CFF0C20FFF799FF06205D
:1003D000FFF796FF0120FFF793FF00BD00C0092043
:1003E00030B50546002408E0295D09B1295D00E02B
:1003F00020210846FFF796FF641C102CF4DB30BD6B
:1004000010B504464FF470000349C8632007000A82
:100410008863FFF799FF10BD00C0092000B5402197
:10042000092000F05DF8642000F0A2FB4F210820B5
:1004300000F056F80321092000F052F827210A2085
:1004400000F04EF83F210C2000F04AF83F210D202B
:1004500000F046F800BD1CB503460C46FFF70AFF46
:10046000AE20FFF71FFF0720FFF71CFFFFF702FF7B
:10047000AF20FFF717FFFFF7D9FE8DF80000FFF759
:10048000D5FE8DF80100FFF7D1FE8DF80200FFF7D1
:10049000CDFE8DF80300FFF7C9FE8DF80400FFF7CD
:1004A000D7FE8DF80500FFF7F5FE9DF8000000046B
:1004B0009DF8011040EA01209DF802100843C0F3A6
:1004C000110020609DF8030000049DF8041040EA2C
:1004D00001209DF805100843C0F3110018601CBDF1
:1004E00010B504460B46FFF7C5FEAE20FFF7DAFE57
:1004F0002046FFF7D7FE1846FFF7D4FEFFF7CAFEE7
:1005000010BD00002DE9F04764480068C0F30160A9
:1005100003287DD161488430006800F0030030B1C9
:10052000012830D0022859D003282BD100E000BF89
:100530005A480068C0F30740441C022157488838D5
:10054000D0F88800C0F30E00401CA1FB0001544B02
:100550004FF0000CA0FB037901FB039100FB0C1191
:10056000224663463846FFF7CDFD05464B487C30B2
:100570000068C0B2441C224600232846FFF7C2FD93
:100580004849086056E045480068C0F30740441CED
:10059000022142488838D0F88800C0F30E00401C81
:1005A000A1FB0010404A4FF0000CA1FB027900FBB8
:1005B000029001FB0C01224663463846FFF7A2FD7C
:1005C000054636487C300068C0B2441C22460023F1
:1005D0002846FFF797FD334908602BE02F48006855
:1005E000C0F30740441C02212C488838D0F888000A
:1005F000C0F30E00401CA1FB00124FF4004000238A
:10060000A1FB007902FB009001FB0301224600E000
:1006100011E03846FFF776FD054620487C3000683B
:10062000C0B2441C224600232846FFF76BFD1D493B
:10063000086000BF30E019488430006800F0030013
:1006400030B1012810D0022819D0032823D100E0AE
:1006500000BF12487C300068C0B2401C1049B1FB9A
:10066000F0F01049086016E00C487C300068C0B219
:10067000401C0D49B1FBF0F00A4908600BE0074847
:100680007C300068C0B2401C4FF40041B1FBF0F078
:100690000449086000BF00BFBDE8F08788C00F4074
:1006A00000093D0004000010001BB70020204B494A
:1006B00008604B48D0F8A00100F0200030B100BF26
:1006C0004648006800F040000028F9D00320434964
:1006D0009C39086000204249C1F8A8013F490C310B
:1006E000086001203D49943908603E483C49843106
:1006F0000860AA203A498C31086055200860012022
:10070000374980310860AA2035498C31086055206E
:100710003349C1F88C0000BF31488830006800F0D0
:1007200080600028F8D003202D4980310860AA207D
:100730002B49C1F88C00552029498C31086000BF35
:1007400027488830006800F04070B0F1407FF7D152
:1007500023202349A4310860AA202149C1F8AC0014
:1007600055201F49AC31086001201D49A0310860A7
:10077000AA201B49AC31086055201949C1F8AC00CA
:1007800000BF1748A830006800F480600028F8D047
:1007900003201349A0310860AA201149C1F8AC0018
:1007A00055200F49AC31086000BF0D48A8300068E3
:1007B00000F44070B0F5407FF7D10B480849C431D0
:1007C000086000200649C1F8C8010846006820F406
:1007D000704040F48040086070470000A0C10F40A6
:1007E00000C00F4063000500DE8728040FB4084BEB
:1007F00010B504A902AA039800F014F8044602A94F
:10080000002000F0B0F9204610BC5DF814FB000099
:10081000670B0000002001E001C1121F002AFBD17C
:10082000704700002DE9FF4F8BB088460546002633
:1008300006E025280BD0DDE90D1290476D1C761CD3
:1008400028780028F5D10FB03046BDE8F08F00249D
:10085000A146A2460122AE4900E0044315F8013F3B
:10086000203B02FA03F00842F7D128782A2810D05A
:100870006FF02F022878A0F13001092915D809EB73
:10088000890102EB410144F0020400EB01096D1CF7
:10089000F0E758F8041B5FEA010903D544F400545B
:1008A000C9F1000944F002046D1C28782E2817D1E4
:1008B00015F8010F44F004042A280ED06FF02F021F
:1008C0002878A0F1300109290AD80AEB8A0102EB45
:1008D000410100EB010A6D1CF2E758F804AB6D1CF6
:1008E00028786C280FD006DC4C2817D068280DD04B
:1008F0006A2814D104E0742810D07A280FD10DE0B2
:1009000044F400140AE044F4801401E044F4401478
:100910006978814202D104F580146D1C6D1C287821
:10092000692865D006DC00288DD0632827D064288C
:1009300006D15DE06E2808D073282AD0752877D0BC
:10094000DDE90D129047761CE0E0C4F30250022866
:1009500009D003280DD0D8F8001004280DD00E605F
:1009600008F10408D2E0D8F80010F217C1E90062DB
:10097000F6E7D8F800100E80F2E70E70F0E718F8EE
:10098000041B8DF8001000208DF80100EB460120BB
:1009900003E058F804BB4FF0FF3061074FF0000749
:1009A00001D40AE07F1C57450DDA8742FADB1BF8B9
:1009B00007100029F6D106E07F1C8742FCDB1BF8FC
:1009C00007100029F8D1DDE90D23A9EB07008146C6
:1009D000214600F0B1F83044C61904E0DDE90D12FB
:1009E0001BF8010B90477F1EF8D22146484688E04D
:1009F00058F8040BC4F302514FF00A0B032900D13D
:100A000000B2042900D140B2002802DA40422D2170
:100A100002E0210505D52B218DF82410012104E0E9
:100A200006E0E10710D02021F6E708AF089113E0B7
:100A300058F8040BC4F302514FF00A0B032900D1FC
:100A400080B2042900D1C0B20021EEE75946FFF779
:100A50008AFB303107F8011D0028F7D1ADEB070004
:100A600000F1200B600702D524F4803401E04FF040
:100A7000010ADA4502DDAAEB0B0000E00020824605
:100A800000EB0B0108980144A9EB01000A90E00378
:100A900006D4DDE90D2321460A9800F04DF80644FE
:100AA0004FF0000908E009A911F80900DDE90D126D
:100AB000904709F10109761C08998945F3DBE003A9
:100AC0000CD5DDE90D2321460A9800F035F80644DF
:100AD00004E0DDE90D1230209047761CBAF10001E8
:100AE000AAF1010AF5DC05E0DDE90D1217F8010BAA
:100AF0009047761CBBF10001ABF1010BF4DC0A98C6
:100B00002146DDE90D2300F005F806446D1C97E64B
:100B1000092801002DE9F041044600251E4617462C
:100B2000880404D405E039462020B0476D1C641EBB
:100B3000F9D52846BDE8F0812DE9F04104460025AD
:100B40001E469046C80301D5302700E020278804C0
:100B500004D505E041463846B0476D1C641EF9D502
:100B60002846BDE8F0810A68531C0B60107070477E
:100B7000002107E0002200E0521C41F270739A420B
:100B8000FAD3491C8142F5D3704700008CB0FFF7BF
:100B90008DFDFFF7B7FC6D48006920F440106B49EC
:100BA00008610846006D20F4401008656848006C34
:100BB00020F48060664908640846006840F48000BC
:100BC00008600846006A40F4802008624FF4800004
:100BD000C8610011C863FFF7C9FBFFF70BFBFFF704
:100BE0001DFC00215BA0FFF76DFBAEE05C480078C8
:100BF00030B1012815D002281FD0032810D120E0E1
:100C00005348406D00F4806050B901205449087089
:100C1000002154A0FFF756FB41F28830FFF7A8FFF0
:100C200092E002204E490870002151A0FFF74AFBD4
:100C300042F21070FFF79CFF86E0032048490870DD
:100C400082E0002420E00AA90BA8FFF704FC0B981F
:100C500000F01F0000F13C050A9800F0030000F1CD
:100C600060062A4646A105A8FFF7C0FD324647A107
:100C70006846FFF7BBFD694605A8FFF723FB4FF465
:100C80007A70FFF775FF641C142CDCD34FF48000DE
:100C90002F49886100241AE00A3D2D2D00DA2D2508
:100CA000361F552E00DA55262A4635A105A8FFF72E
:100CB0009DFD324635A16846FFF798FD694605A8B7
:100CC000FFF700FB4FF47A70FFF752FF641C142CFF
:100CD000E2D34FF480001E49C861002426E00C35A1
:100CE000782D00DD7825B61C642E00DD64260520F5
:100CF000B4FBF0F100FB114028B91548406B80F4BB
:100D00008020134948632A461DA105A8FFF76EFD00
:100D100032461EA16846FFF769FD694605A8FFF740
:100D2000D1FA4FF47A70FFF723FF641C142CD6D34A
:100D30004FF480200649C86300200949087000214B
:100D400004A0FFF7BFFA00BF00BF4FE700C002409A
:100D500000C009204E4F2050415449454E540000D8
:100D600000000010434845434B20555021212100ED
:100D7000504C4143452046494E4745520000000033
:100D800048523A2533642042504D000053704F3290
:100D90003A25336420252500B80D0000000000101E
:100DA00008000000EC020000C00D00000800001068
:100DB00000020000140800000000000000E1F5053A
:04000005000000CD2A
:00000001FF
